{
  "address": "0x1A82E126E555d1bC019d20a4058c4A35F19810C1",
  "abi": [
    {
      "inputs": [],
      "stateMutability": "nonpayable",
      "type": "constructor"
    },
    {
      "anonymous": false,
      "inputs": [
        {
          "indexed": true,
          "internalType": "uint256",
          "name": "day",
          "type": "uint256"
        }
      ],
      "name": "DailyWordUpdated",
      "type": "event"
    },
    {
      "anonymous": false,
      "inputs": [
        {
          "indexed": false,
          "internalType": "address",
          "name": "player",
          "type": "address"
        },
        {
          "indexed": false,
          "internalType": "bool",
          "name": "won",
          "type": "bool"
        }
      ],
      "name": "GameCompleted",
      "type": "event"
    },
    {
      "anonymous": false,
      "inputs": [
        {
          "indexed": false,
          "internalType": "address",
          "name": "player",
          "type": "address"
        }
      ],
      "name": "GameInitialized",
      "type": "event"
    },
    {
      "anonymous": false,
      "inputs": [
        {
          "indexed": false,
          "internalType": "address",
          "name": "player",
          "type": "address"
        }
      ],
      "name": "GameReset",
      "type": "event"
    },
    {
      "anonymous": false,
      "inputs": [
        {
          "indexed": false,
          "internalType": "address",
          "name": "player",
          "type": "address"
        },
        {
          "indexed": false,
          "internalType": "uint8",
          "name": "guessNumber",
          "type": "uint8"
        }
      ],
      "name": "GuessSubmitted",
      "type": "event"
    },
    {
      "inputs": [
        {
          "internalType": "string",
          "name": "newWord",
          "type": "string"
        }
      ],
      "name": "addWord",
      "outputs": [],
      "stateMutability": "nonpayable",
      "type": "function"
    },
    {
      "inputs": [],
      "name": "getEncryptedWinStatus",
      "outputs": [
        {
          "internalType": "ebool",
          "name": "",
          "type": "bytes32"
        }
      ],
      "stateMutability": "view",
      "type": "function"
    },
    {
      "inputs": [],
      "name": "hasNewDailyWord",
      "outputs": [
        {
          "internalType": "bool",
          "name": "",
          "type": "bool"
        }
      ],
      "stateMutability": "view",
      "type": "function"
    },
    {
      "inputs": [],
      "name": "initializeDailyGame",
      "outputs": [],
      "stateMutability": "nonpayable",
      "type": "function"
    },
    {
      "inputs": [
        {
          "internalType": "externalEuint8[5]",
          "name": "encryptedLetters",
          "type": "bytes32[5]"
        },
        {
          "internalType": "bytes[5]",
          "name": "proofs",
          "type": "bytes[5]"
        }
      ],
      "name": "initializeGame",
      "outputs": [],
      "stateMutability": "nonpayable",
      "type": "function"
    },
    {
      "inputs": [],
      "name": "protocolId",
      "outputs": [
        {
          "internalType": "uint256",
          "name": "",
          "type": "uint256"
        }
      ],
      "stateMutability": "pure",
      "type": "function"
    },
    {
      "inputs": [],
      "name": "resetGame",
      "outputs": [],
      "stateMutability": "nonpayable",
      "type": "function"
    },
    {
      "inputs": [
        {
          "internalType": "externalEuint8[5]",
          "name": "encryptedGuess",
          "type": "bytes32[5]"
        },
        {
          "internalType": "bytes[5]",
          "name": "proofs",
          "type": "bytes[5]"
        }
      ],
      "name": "submitGuess",
      "outputs": [
        {
          "internalType": "euint8[5]",
          "name": "",
          "type": "bytes32[5]"
        }
      ],
      "stateMutability": "nonpayable",
      "type": "function"
    },
    {
      "inputs": [],
      "name": "updateDailySeed",
      "outputs": [],
      "stateMutability": "nonpayable",
      "type": "function"
    }
  ],
  "transactionHash": "0xa989426a232848d72dc4adb3fdde32ed0e2ebbab2c06f276df3d166546450eda",
  "args": [],
  "numDeployments": 3,
  "solcInputHash": "07560ffddbab4e700bbeaea8bfebf324",
  "bytecode": "0x60056121008181526441574f4b4560d81b6121205260809081526121408281526420a624a2a760d91b6121605260a0526121808281526420a624a3a760d91b6121a05260c0526121c08281526441474c4f5760d81b6121e05260e0526122008281526441444f524560d81b61222052610100526122408281526420a12427a960d91b61226052610120526122808281526420a1aa27a960d91b6122a052610140526122c082815264414355544560d81b6122e0526101605261230082815264105111541560da1b612320526101805261234082815264414c42554d60d81b612360526101a05261238082815264424c414e4b60d81b6123a0526101c0526123c082815264425249534b60d81b6123e0526101e052612400828152641093d5539160da1b61242052610200526124408281526442414e4a4f60d81b61246052610220526124808281526408498aaa6960db1b6124a052610240526124c082815264425255544560d81b6124e0526102605261250082815264042494345560dc1b61252052610280526125408281526442454c4f5760d81b612560526102a05261258082815264109313d05560da1b6125a0526102c0526125c082815264212920a4a760d91b6125e0526102e052612600828152644352414e4560d81b6126205261030052612640828152644348414c4b60d81b61266052610320526126808281526410d3d5915560da1b6126a052610340526126c08281526421aaa6a4a760d91b6126e0526103605261270082815264434f42524160d81b61272052610380526127408281526443414e445960d81b612760526103a05261278082815264434c4f4e4560d81b6127a0526103c0526127c08281526410d3d5539560da1b6127e0526103e052612800828152644355524c5960d81b61282052610400526128408281526421a2a220a960d91b612860526104205261288082815264111490519560da1b6128a052610440526128c08281526444524f4e4560d81b6128e05261046052612900828152644452494e4b60d81b6129205261048052612940828152641113d5509560da1b612960526104a05261298082815264222927aba760d91b6129a0526104c0526129c082815264111555915560da1b6129e0526104e052612a008281526444524f505360d81b612a205261050052612a408281526444494e474f60d81b612a605261052052612a808281526444494d4c5960d81b612aa05261054052612ac082815264111150d05360da1b612ae05261056052612b008281526408aa09e86960db1b612b205261058052612b4082815264454c424f5760d81b612b60526105a052612b808281526411539050d560da1b612ba0526105c052612bc082815264045515549560dc1b612be0526105e052612c0082815264115615531560da1b612c205261060052612c4082815264454d50545960d81b612c605261062052612c8082815264455448494360d81b612ca05261064052612cc082815264455854524160d81b612ce05261066052612d0082815264454e4a4f5960d81b612d205261068052612d4082815264115455505360da1b612d60526106a052612d8082815264119493d4d560da1b612da0526106c052612dc082815264464c494e4760d81b612de0526106e052612e0082815264464c55544560d81b612e205261070052612e4082815264119293d49160da1b612e605261072052612e8082815264119490555160da1b612ea05261074052612ec0828152644641424c4560d81b612ee05261076052612f0082815264119152539560da1b612f205261078052612f4082815264464f43555360d81b612f60526107a052612f80828152644652414d4560d81b612fa0526107c052612fc082815264464c414b5960d81b612fe0526107e0526130008281526411d312539560da1b613020526108005261304082815264047524f55560dc1b613060526108205261308082815264475241434560d81b6130a052610840526130c08281526447554d424f60d81b6130e0526108605261310082815264475549444560d81b61312052610880526131408281526423a920a4a760d91b613160526108a05261318082815264474c41444560d81b6131a0526108c0526131c08281526411d492539160da1b6131e0526108e0526132008281526408ea482a0960db1b61322052610900526132408281526423a927aba760d91b613260526109205261328082815264121150549560da1b6132a052610940526132c08281526448414e445960d81b6132e0526109605261330082815264484153544560d81b6133205261098052613340828152642420ab22a760d91b613360526109a05261338082815264484f52534560d81b6133a0526109c0526133c0828152641213d5539160da1b6133e0526109e05261340082815264121553525160da1b61342052610a00526134408281526448494e474560d81b61346052610a2052613480828152641213d5115360da1b6134a052610a40526134c082815264242ca822a960d91b6134e052610a6052613500828152640929c888ab60db1b61352052610a80526135408281526449564f525960d81b61356052610aa05261358082815264125111505360da1b6135a052610ac0526135c082815264125394155560da1b6135e052610ae05261360082815264125393115560da1b61362052610b005261364082815264495241544560d81b61366052610b205261368082815264494d41474560d81b6136a052610b40526136c082815264494d42554560d81b6136e052610b60526137008281526424a72322a960d91b61372052610b8052613740828152640929c849eb60db1b61376052610ba052613780828152644a554d424f60d81b6137a052610bc0526137c0828152641293d554d560da1b6137e052610be052613800828152644a554d505960d81b61382052610c0052613840828152642527a5a2a960d91b61386052610c205261388082815264129055539560da1b6138a052610c40526138c0828152644a45524b5960d81b6138e052610c6052613900828152644a5544474560d81b61392052610c8052613940828152641293d2539560da1b61396052610ca052613980828152644a4f494e5360d81b6139a052610cc0526139c0828152644a554d505360d81b6139e052610ce052613a00828152644b4e41564560d81b613a2052610d0052613a40828152644b4e49464560d81b613a6052610d2052613a80828152644b494f534b60d81b613aa052610d4052613ac08281526412d391531560da1b613ae052610d6052613b008281526412d395549360da1b613b2052610d8052613b408281526412d490525560da1b613b6052610da052613b80828152644b55444f5360d81b613ba052610dc052613bc08281526412d054155560da1b613be052610de052613c008281526412d391505160da1b613c2052610e0052613c408281526412d05494d560da1b613c6052610e2052613c8082815264131251d21560da1b613ca052610e4052613cc0828152642620a9a2a960d91b613ce052610e6052613d00828152642622a6a7a760d91b613d2052610e8052613d40828152644c4150495360d81b613d6052610ea052613d8082815264262aa720a960d91b613da052610ec052613dc082815264098b29aa0960db1b613de052610ee052613e00828152644c4f43555360d81b613e2052610f0052613e40828152644c4f47494360d81b613e6052610f2052613e80828152644c4f44474560d81b613ea052610f4052613ec08281526409882a886960db1b613ee052610f6052613f00828152644d4f55534560d81b613f2052610f8052613f40828152644d494e545960d81b613f6052610fa052613f80828152644d4147494360d81b613fa052610fc052613fc0828152644d41504c4560d81b613fe052610fe052614000828152644d414e474f60d81b6140205261100052614040828152644d4f43484160d81b6140605261102052614080828152644d4f56494560d81b6140a052611040526140c0828152641353d5539160da1b6140e052611060526141008281526426a4a727a960d91b614120526110805261414082815264135554905360da1b614160526110a052614180828152641393d5915360da1b6141a0526110c0526141c0828152644e5552534560d81b6141e0526110e05261420082815264139251d21560da1b6142205261110052614240828152644e4558555360d81b6142605261112052614280828152644e4f424c4560d81b6142a052611140526142c0828152644e5544474560d81b6142e052611160526143008281526409c9ea4a8960db1b6143205261118052614340828152644e4946545960d81b614360526111a052614380828152642720a224a960d91b6143a0526111c0526143c0828152644e4f49534560d81b6143e0526111e0526144008281526413d490925560da1b61442052611200526144408281526427a1a2a0a760d91b6144605261122052614480828152644f4c49564560d81b6144a052611240526144c0828152644f5054494360d81b6144e052611260526145008281526427aaaa22a960d91b61452052611280526145408281526413d551d21560da1b614560526112a052614580828152644f5045524160d81b6145a0526112c0526145c0828152644f4b41504960d81b6145e0526112e052614600828152644f5049554d60d81b6146205261130052614640828152644f57494e4760d81b61466052611320526146808281526450494e475360d81b6146a052611340526146c082815264141055915160da1b6146e05261136052614700828152645049414e4f60d81b6147205261138052614740828152640a08a8286960db1b614760526113a05261478082815264504c554d4560d81b6147a0526113c0526147c082815264505249534d60d81b6147e0526113e05261480082815264504152545960d81b614820526114005261484082815264141310539560da1b61486052611420526148808281526450524f564560d81b6148a052611440526148c0828152640a0aa9c86960db1b6148e0526114605261490082815264515541434b60d81b614920526114805261494082815264515549434b60d81b614960526114a0526149808281526414555154d560da1b6149a0526114c0526149c082815264145552531560da1b6149e0526114e052614a0082815264515541524b60d81b614a205261150052614a408281526451554f544160d81b614a605261152052614a8082815264145552515560da1b614aa05261154052614ac08281526451554f544560d81b614ae05261156052614b0082815264145550525360da1b614b205261158052614b40828152640a2aa82a6960db1b614b60526115a052614b8082815264524144494f60d81b614ba0526115c052614bc082815264524f47554560d81b614be0526115e052614c0082815264524944474560d81b614c205261160052614c40828152645245414c4d60d81b614c605261162052614c80828152640a4829c86960db1b614ca05261164052614cc082815264524154494f60d81b614ce05261166052614d00828152641493d054d560da1b614d205261168052614d40828152645255494e5360d81b614d60526116a052614d80828152642920ab22a760d91b614da0526116c052614dc0828152641493d5539160da1b614de0526116e052614e008281526453544f524d60d81b614e205261170052614e4082815264534e414b4560d81b614e605261172052614e8082815264534d494c4560d81b614ea05261174052614ec08281526429a7a620a960d91b614ee05261176052614f008281526414d5d2519560da1b614f205261178052614f408281526429a8aaa4a160d91b614f60526117a052614f80828152645350554e4b60d81b614fa0526117c052614fc082815264535441474560d81b614fe0526117e0526150008281526414d3d5539160da1b61502052611800526150408281526429aa22a92760d91b6150605261182052615080828152642a24a3a2a960d91b6150a0526118409081526150c0838152642a27aba2a960d91b6150e0526118605261510083815264054554c49560dc1b61512052611880526151408381526454454d504f60d81b615160526118a052615180838152640a89ea486960db1b6151a0526118c0526151c0838152640a890ae82b60db1b6151e0526118e052615200838152642a2427a92760d91b615220526119005261524083815264151491539160da1b6152605261192052615280838152645452554e4b60d81b6152a052611940526152c08381526454414e474f60d81b6152e0526119605261530083815264554e434c4560d81b615320526119805261534083815264554e49545960d81b615360526119a05261538083815264554c54524160d81b6153a0526119c0526153c0838152640aa9c849eb60db1b6153e0526119e052615400838152642aa92120a760d91b61542052611a005261544083815264555341474560d81b61546052611a205261548083815264155395125360da1b6154a052611a40526154c083815264155414d15560da1b6154e052611a6052615500838152642aa9a422a960d91b61552052611a8052615540838152645554494c4560d81b61556052611aa05261558083815264159153111560da1b6155a052611ac0526155c083815264564952555360d81b6155e052611ae052615600838152642b24a822a960d91b61562052611b0052615640838152642b20a827a960d91b61566052611b2052615680838152641593d5d15360da1b6156a052611b40526156c0838152642b20a627a960d91b6156e052611b6052615700838152642b24a3a7a960d91b61572052611b805261574083815264564953544160d81b61576052611ba0526157808381526456454e4f4d60d81b6157a052611bc05261580060409081526157c0848152642b24ac22a760d91b6157e052611be0529192602092909181518083018352838152642ba0a62a2d60d91b818601526103c0820152815180830183528381526415d3d4931160da1b818601526103e082015281518083018352838152645748414c4560d81b81860152610400820152815180830183528381526415d211505560da1b8186015261042082015281518083018352838152642ba7ab22a760d91b8186015261044082015281518083018352838152645752554e4760d81b8186015261046082015281518083018352838152645741434b5960d81b8186015261048082015281518083018352838152642ba7a6a0a760d91b818601526104a082015281518083018352838152642ba0aa22a960d91b818601526104c0820152815180830183528381526457494e445960d81b818601526104e0820152815180830183528381526458594c454d60d81b818601526105008201528151808301835283815264584552555360d81b81860152610520820152815180830183528381526458454e494160d81b81860152610540820152815180830183528381526458454e494360d81b818601526105608201528151808301835283815264584552494360d81b81860152610580820152815180830183528381526458454e4f5360d81b818601526105a08201528151808301835283815264585953544960d81b818601526105c082015281518083018352838152642c2ca620a760d91b818601526105e08201528151808301835283815264585953544560d81b8186015261060082015281518083018352838152645845524f5360d81b8186015261062082015281518083018352838152640b29eaaa8960db1b818601526106408201528151808301835283815264165050d21560da1b818601526106608201528151808301835283815264594f554e4760d81b8186015261068082015281518083018352838152641653d1115360da1b818601526106a08201528151808301835283815264165251531160da1b818601526106c082015281518083018352838152641653d2d15360da1b818601526106e082015281518083018352838152642ca2a0a92760d91b8186015261070082015281518083018352838152645941574e5360d81b81860152610720820152815180830183528381526416515054d560da1b81860152610740820152815180830183528381526459454c505360d81b8186015261076082015281518083018352838152645a4542524160d81b8186015261078082015281518083018352838152645a4553545960d81b818601526107a082015281518083018352838152641693d3905360da1b818601526107c082015281518083018352838152641693d3915160da1b818601526107e082015281518083018352838152642d27a722a960d91b8186015261080082015281518083018352838152640b4929886960db1b8186015261082082015281518083018352838152645a4c4f545960d81b8186015261084082015281518083018352838152645a594d494360d81b8186015261086082015281518083018352838152642d2ca3a7a760d91b818601526108808201528151808301909252918152645a4542555360d81b928101929092526108a0015261186e90600690610104611aa2565b5034801561187a575f5ffd5b506119f5611919604080516080810182525f808252602082018190529181018290526060810191909152506040805160808101825273687820221192c5b662b25367f70076a37bc79b6c815273848b0066793bcc60346da1f49049357399b8d595602082015273a02cda4ca3a71d7c46997716f4283aa851c2881291810191909152731364cbbf2cdf5032c47d8226a6f6fbd2afcdacac606082015290565b80517f9e7b61f58c47dc699ac88507c4f5bb9f121c03808c5676a8078fe583e464970080546001600160a01b03199081166001600160a01b039384161790915560208301517f9e7b61f58c47dc699ac88507c4f5bb9f121c03808c5676a8078fe583e46497018054831691841691909117905560408301517f9e7b61f58c47dc699ac88507c4f5bb9f121c03808c5676a8078fe583e46497028054831691841691909117905560608301517f9e7b61f58c47dc699ac88507c4f5bb9f121c03808c5676a8078fe583e46497038054909216921691909117905550565b600780546001600160a01b03191633179055611a0f611a17565b611cee565b50565b5f611a256201518042611b58565b90506009548114611a145780611a3c600143611b77565b40604051602001611a57929190918252602082015260400190565b60408051601f19818403018152908290528051602090910120600855600982905581907f0e70c84908991bee7f9bb917a18e4fe2ed297ad218e2b8b3241c2ce32b0d970f905f90a250565b828054828255905f5260205f20908101928215611ae6579160200282015b82811115611ae65782518290611ad69082611c34565b5091602001919060010190611ac0565b50611af2929150611af6565b5090565b80821115611af2575f611b098282611b12565b50600101611af6565b508054611b1e90611bb0565b5f825580601f10611b2d575050565b601f0160209004905f5260205f2090810190611a1491905b80821115611af2575f8155600101611b45565b5f82611b7257634e487b7160e01b5f52601260045260245ffd5b500490565b81810381811115611b9657634e487b7160e01b5f52601160045260245ffd5b92915050565b634e487b7160e01b5f52604160045260245ffd5b600181811c90821680611bc457607f821691505b602082108103611be257634e487b7160e01b5f52602260045260245ffd5b50919050565b601f821115611c2f57805f5260205f20601f840160051c81016020851015611c0d5750805b601f840160051c820191505b81811015611c2c575f8155600101611c19565b50505b505050565b81516001600160401b03811115611c4d57611c4d611b9c565b611c6181611c5b8454611bb0565b84611be8565b6020601f821160018114611c93575f8315611c7c5750848201515b5f19600385901b1c1916600184901b178455611c2c565b5f84815260208120601f198516915b82811015611cc25787850151825560209485019460019092019101611ca2565b5084821015611cdf57868401515f19600387901b60f8161c191681555b50505050600190811b01905550565b611a5180611cfb5f395ff3fe608060405234801561000f575f5ffd5b506004361061009f575f3560e01c806385be1ad711610072578063b4fdb51611610058578063b4fdb5161461011a578063bb47221914610132578063da1f12ab1461013a575f5ffd5b806385be1ad7146100fc578063a443076114610112575f5ffd5b80630608daf4146100a357806337848dae146100cc5780634974da81146100e15780636b4a9703146100f4575b5f5ffd5b6100b66100b1366004611666565b610142565b6040516100c391906116b2565b60405180910390f35b6100df6100da366004611666565b6105df565b005b6100df6100ef3660046116e2565b6107ba565b6100df610a24565b610104610ab0565b6040519081526020016100c3565b6100df610b24565b610122610d15565b60405190151581526020016100c3565b6100df610d5c565b612711610104565b61014a611619565b335f9081526020819052604090205460ff166101ad5760405162461bcd60e51b815260206004820152601460248201527f47616d65206e6f7420696e697469616c697a656400000000000000000000000060448201526064015b60405180910390fd5b335f9081526020819052604090205462010000900460ff16156102125760405162461bcd60e51b815260206004820152601660248201527f47616d6520616c726561647920636f6d706c657465640000000000000000000060448201526064016101a4565b335f90815260208190526040902054600661010090910460ff16106102795760405162461bcd60e51b815260206004820152601760248201527f4d6178696d756d2067756573736573207265616368656400000000000000000060448201526064016101a4565b335f9081526020819052604090208054610100900460ff1690600161029d83611764565b91906101000a81548160ff021916908360ff160217905550506102be611619565b5f5b600560ff8216101561036957610347858260ff16600581106102e4576102e4611782565b6020020135858360ff16600581106102fe576102fe611782565b60200281019061030e9190611796565b8080601f0160208091040260200160405190810160405280939291908181526020018383808284375f92019190915250610ddd92505050565b828260ff166005811061035c5761035c611782565b60200201526001016102c0565b50610372611619565b5f61037d6001610df1565b90505f5b600560ff82161015610494575f6103c8858360ff16600581106103a6576103a6611782565b602002015160018460ff16600581106103c1576103c1611782565b0154610e0c565b90505f6103d45f610df1565b90505f5b600560ff82161015610422578060ff168460ff161461041a575f61040a888660ff16600581106103a6576103a6611782565b90506104168382610e3a565b9250505b6001016103d8565b505f610440836104326002610e68565b61043b5f610e68565b610e77565b90505f610451836104326001610e68565b905061045e848383610e77565b878660ff166005811061047357610473611782565b60200201526104828685610e8b565b95505060019093019250610381915050565b50805f5b600560ff821610156104f3576104c6848260ff16600581106104bc576104bc611782565b6020020151610eb9565b506104ea848260ff16600581106104df576104df611782565b602002015133610ec8565b50600101610498565b506104fd81610eb9565b506105088133610ec8565b50335f9081526020819052604090206002810182905554600661010090910460ff161061058557335f81815260208181526040808320805462ff00001916620100001790558051938452908301919091527f9b830e6ccbf17da6759bc3bab3e198411a4d141451c048d4529e4f377bedd446910160405180910390a15b335f8181526020818152604091829020548251938452610100900460ff16908301527f17f532dd235deda5af44a6b92010fc363a16f9cbcee386385d1191363f40f20c910160405180910390a15090925050505b92915050565b335f9081526020819052604090205460ff161561063e5760405162461bcd60e51b815260206004820152601860248201527f47616d6520616c726561647920696e697469616c697a6564000000000000000060448201526064016101a4565b5f5b600560ff821610156106bf5761067e838260ff166005811061066457610664611782565b6020020135838360ff16600581106102fe576102fe611782565b60018260ff166005811061069457610694611782565b01556106b6600160ff8316600581106106af576106af611782565b0154610eb9565b50600101610640565b506040805160c081018252600181525f602082018190529181018290526060810191909152608081016106f562015180426117f4565b81526020016107035f610df1565b9052335f81815260208181526040918290208451815486840151878601516060890151151563010000000263ff0000001991151562010000029190911663ffff00001960ff9093166101000261ff00199515159590951661ffff19909416939093179390931716171781556080850151600182015560a090940151600290940193909355519081527fada0ba55ddd90bb25ecc3a5e99986836201565b3a09e5be156e48713da1bfd63910160405180910390a15050565b6007546001600160a01b031633146108145760405162461bcd60e51b815260206004820152601860248201527f4f6e6c79206f776e65722063616e2061646420776f726473000000000000000060448201526064016101a4565b600581146108645760405162461bcd60e51b815260206004820152601660248201527f576f7264206d7573742062652035206c6574746572730000000000000000000060448201526064016101a4565b60408051601a80825261036082019092525f9160208201610340803683370190505090505f83838080601f0160208091040260200160405190810160405280939291908181526020018383808284375f9201829052509394505050505b81518110156109e0575f60418383815181106108df576108df611782565b01602001516108f1919060f81c61181b565b9050601a8160ff16106109465760405162461bcd60e51b815260206004820152601160248201527f496e76616c69642063686172616374657200000000000000000000000000000060448201526064016101a4565b838160ff168151811061095b5761095b611782565b6020026020010151156109b05760405162461bcd60e51b815260206004820152601660248201527f4475706c6963617465206c657474657220666f756e640000000000000000000060448201526064016101a4565b6001848260ff16815181106109c7576109c7611782565b91151560209283029190910190910152506001016108c1565b50600680546001810182555f919091527ff652222313e28459528d920b65115c16c04f3efc82aaedc97be59f3f377c0d3f01610a1d8486836118b5565b5050505050565b5f610a3262015180426117f4565b90506009548114610aad5780610a4960014361196f565b40604051602001610a64929190918252602082015260400190565b60408051601f19818403018152908290528051602090910120600855600982905581907f0e70c84908991bee7f9bb917a18e4fe2ed297ad218e2b8b3241c2ce32b0d970f905f90a25b50565b335f9081526020819052604081205460ff16610b0e5760405162461bcd60e51b815260206004820152601460248201527f47616d65206e6f7420696e697469616c697a656400000000000000000000000060448201526064016101a4565b50335f9081526020819052604090206002015490565b5f610b3262015180426117f4565b335f9081526020819052604090205490915060ff161580610b645750335f908152602081905260409020600101548114155b610bb05760405162461bcd60e51b815260206004820152601e60248201527f47616d6520616c726561647920696e697469616c697a656420746f646179000060448201526064016101a4565b610bb8610a24565b5f6006610bc3610eda565b81548110610bd357610bd3611782565b905f5260205f20018054610be690611834565b80601f0160208091040260200160405190810160405280929190818152602001828054610c1290611834565b8015610c5d5780601f10610c3457610100808354040283529160200191610c5d565b820191905f5260205f20905b815481529060010190602001808311610c4057829003601f168201915b509394505f93505050505b600560ff82161015610cd8575f828260ff1681518110610c8a57610c8a611782565b016020015160f81c9050610c9d81610e68565b60018360ff1660058110610cb357610cb3611782565b0155610cce600160ff8416600581106106af576106af611782565b5050600101610c68565b506040518060c001604052806001151581526020015f60ff1681526020015f151581526020015f151581526020018381526020016107035f610df1565b5f80610d2462015180426117f4565b335f9081526020819052604090205490915060ff161580610d565750335f908152602081905260409020600101548114155b91505090565b335f9081526020819052604090205460ff1615610da857335f908152602081905260408120805463ffffffff19169055610d9590610df1565b335f908152602081905260409020600201555b6040513381527f5c5242c86e1c99f381866c8c3d6542c0f9691ec890edfe6699def7dafa9a34f69060200160405180910390a1565b5f610dea8383600261101f565b9392505050565b5f6105d982610e00575f610e03565b60015b60ff165f61113f565b5f82610e1e57610e1b5f610e68565b92505b81610e2f57610e2c5f610e68565b91505b610dea83835f6111f4565b5f82610e4c57610e495f610df1565b92505b81610e5d57610e5a5f610df1565b91505b610dea83835f6112d7565b5f6105d98260ff16600261113f565b5f610e83848484611374565b949350505050565b5f82610e9d57610e9a5f610df1565b92505b81610eae57610eab5f610df1565b91505b610dea83835f61141d565b5f610ec482306114ba565b5090565b5f610ed383836114ba565b5090919050565b6006546008545f918291610eee9190611982565b90505f5b600654811015610fd6576006545f90610f0b8385611995565b610f159190611982565b9050610fc160068281548110610f2d57610f2d611782565b905f5260205f20018054610f4090611834565b80601f0160208091040260200160405190810160405280929190818152602001828054610f6c90611834565b8015610fb75780601f10610f8e57610100808354040283529160200191610fb7565b820191905f5260205f20905b815481529060010190602001808311610f9a57829003601f168201915b5050505050611543565b15610fcd579392505050565b50600101610ef2565b5060405162461bcd60e51b815260206004820152601f60248201527f4e6f20756e697175652d6c657474657220776f726420617661696c61626c650060448201526064016101a4565b7f9e7b61f58c47dc699ac88507c4f5bb9f121c03808c5676a8078fe583e46497015460405163196d0b9b60e01b81525f917f9e7b61f58c47dc699ac88507c4f5bb9f121c03808c5676a8078fe583e4649700916001600160a01b039091169063196d0b9b906110989088903390899089906004016119c8565b6020604051808303815f875af11580156110b4573d5f5f3e3d5ffd5b505050506040513d601f19601f820116820180604052508101906110d89190611a19565b8154604051630f8e573b60e21b8152600481018390523360248201529193506001600160a01b031690633e395cec906044015f604051808303815f87803b158015611121575f5ffd5b505af1158015611133573d5f5f3e3d5ffd5b50505050509392505050565b7f9e7b61f58c47dc699ac88507c4f5bb9f121c03808c5676a8078fe583e464970154604051639cd07acb60e01b81525f917f9e7b61f58c47dc699ac88507c4f5bb9f121c03808c5676a8078fe583e4649700916001600160a01b0390911690639cd07acb906111b49087908790600401611a30565b6020604051808303815f875af11580156111d0573d5f5f3e3d5ffd5b505050506040513d601f19601f82011682018060405250810190610e839190611a19565b5f5f82156112075750600160f81b61120a565b505f5b7f9e7b61f58c47dc699ac88507c4f5bb9f121c03808c5676a8078fe583e46497015460405163f77f3f1d60e01b815260048101879052602481018690526001600160f81b0319831660448201527f9e7b61f58c47dc699ac88507c4f5bb9f121c03808c5676a8078fe583e4649700916001600160a01b03169063f77f3f1d906064015b6020604051808303815f875af11580156112a9573d5f5f3e3d5ffd5b505050506040513d601f19601f820116820180604052508101906112cd9190611a19565b9695505050505050565b5f5f82156112ea5750600160f81b6112ed565b505f5b7f9e7b61f58c47dc699ac88507c4f5bb9f121c03808c5676a8078fe583e4649701546040516363a2db2960e01b815260048101879052602481018690526001600160f81b0319831660448201527f9e7b61f58c47dc699ac88507c4f5bb9f121c03808c5676a8078fe583e4649700916001600160a01b0316906363a2db299060640161128d565b5f807f9e7b61f58c47dc699ac88507c4f5bb9f121c03808c5676a8078fe583e46497006001810154604051637702dcff60e01b81526004810188905260248101879052604481018690529192506001600160a01b031690637702dcff906064016020604051808303815f875af11580156113f0573d5f5f3e3d5ffd5b505050506040513d601f19601f820116820180604052508101906114149190611a19565b95945050505050565b5f5f82156114305750600160f81b611433565b505f5b7f9e7b61f58c47dc699ac88507c4f5bb9f121c03808c5676a8078fe583e46497015460405163d99882d560e01b815260048101879052602481018690526001600160f81b0319831660448201527f9e7b61f58c47dc699ac88507c4f5bb9f121c03808c5676a8078fe583e4649700916001600160a01b03169063d99882d59060640161128d565b5f7f9e7b61f58c47dc699ac88507c4f5bb9f121c03808c5676a8078fe583e46497008054604051635ca4b5b160e11b8152600481018690526001600160a01b03858116602483015292935091169063b9496b62906044015f604051808303815f87803b158015611528575f5ffd5b505af115801561153a573d5f5f3e3d5ffd5b50505050505050565b80515f90829060051461155857505f92915050565b611560611637565b5f5b825181101561160e575f83828151811061157e5761157e611782565b016020015160f81c9050604181108061159a5750605a8160ff16115b156115aa57505f95945050505050565b5f6115b660418361181b565b9050838160ff16601a81106115cd576115cd611782565b6020020151156115e357505f9695505050505050565b6001848260ff16601a81106115fa576115fa611782565b911515602090920201525050600101611562565b506001949350505050565b6040518060a001604052806005906020820280368337509192915050565b604051806103400160405280601a906020820280368337509192915050565b8060a081018310156105d9575f5ffd5b5f5f60c08385031215611677575f5ffd5b6116818484611656565b915060a083013567ffffffffffffffff81111561169c575f5ffd5b6116a885828601611656565b9150509250929050565b60a0810181835f5b60058110156116d95781518352602092830192909101906001016116ba565b50505092915050565b5f5f602083850312156116f3575f5ffd5b823567ffffffffffffffff811115611709575f5ffd5b8301601f81018513611719575f5ffd5b803567ffffffffffffffff81111561172f575f5ffd5b856020828401011115611740575f5ffd5b6020919091019590945092505050565b634e487b7160e01b5f52601160045260245ffd5b5f60ff821660ff810361177957611779611750565b60010192915050565b634e487b7160e01b5f52603260045260245ffd5b5f5f8335601e198436030181126117ab575f5ffd5b83018035915067ffffffffffffffff8211156117c5575f5ffd5b6020019150368190038213156117d9575f5ffd5b9250929050565b634e487b7160e01b5f52601260045260245ffd5b5f82611802576118026117e0565b500490565b634e487b7160e01b5f52604160045260245ffd5b60ff82811682821603908111156105d9576105d9611750565b600181811c9082168061184857607f821691505b60208210810361186657634e487b7160e01b5f52602260045260245ffd5b50919050565b601f8211156118b057805f5260205f20601f840160051c810160208510156118915750805b601f840160051c820191505b81811015610a1d575f815560010161189d565b505050565b67ffffffffffffffff8311156118cd576118cd611807565b6118e1836118db8354611834565b8361186c565b5f601f841160018114611912575f85156118fb5750838201355b5f19600387901b1c1916600186901b178355610a1d565b5f83815260208120601f198716915b828110156119415786850135825560209485019460019092019101611921565b508682101561195d575f1960f88860031b161c19848701351681555b505060018560011b0183555050505050565b818103818111156105d9576105d9611750565b5f82611990576119906117e0565b500690565b808201808211156105d9576105d9611750565b605481106119c457634e487b7160e01b5f52602160045260245ffd5b9052565b8481526001600160a01b0384166020820152608060408201525f8351806080840152806020860160a085015e5f60a0828501015260a0601f19601f83011684010191505061141460608301846119a8565b5f60208284031215611a29575f5ffd5b5051919050565b82815260408101610dea60208301846119a856fea164736f6c634300081b000a",
  "devdoc": {
    "author": "Zama-Wordle",
    "kind": "dev",
    "methods": {
      "addWord(string)": {
        "params": {
          "newWord": "New unique-letter word"
        }
      },
      "getEncryptedWinStatus()": {
        "returns": {
          "_0": "Encrypted win status handle"
        }
      },
      "hasNewDailyWord()": {
        "returns": {
          "_0": "Returns true if a new daily word is available"
        }
      },
      "initializeGame(bytes32[5],bytes[5])": {
        "params": {
          "encryptedLetters": "Encrypted letter array",
          "proofs": "Encryption proofs"
        }
      },
      "submitGuess(bytes32[5],bytes[5])": {
        "params": {
          "encryptedGuess": "Encrypted guess word",
          "proofs": "Encryption proofs"
        },
        "returns": {
          "_0": "Encrypted results array, per-position meaning:         0: Letter not in the word         1: Letter in the word but wrong position         2: Letter in the word and correct position"
        }
      }
    },
    "title": "FHE Wordle Game",
    "version": 1
  },
  "userdoc": {
    "kind": "user",
    "methods": {
      "addWord(string)": {
        "notice": "Allow contract owner to add a new word to the list"
      },
      "getEncryptedWinStatus()": {
        "notice": "Get the encrypted win status (to be decrypted off-chain by the user)"
      },
      "hasNewDailyWord()": {
        "notice": "Check if a new daily word is available"
      },
      "initializeDailyGame()": {
        "notice": "Initialize the daily game"
      },
      "initializeGame(bytes32[5],bytes[5])": {
        "notice": "Initialize the game with a custom target word (legacy function allowing custom word)"
      },
      "resetGame()": {
        "notice": "Reset the caller's game state so they can re-initialize the daily game"
      },
      "submitGuess(bytes32[5],bytes[5])": {
        "notice": "Submit a guess and obtain the encrypted results"
      },
      "updateDailySeed()": {
        "notice": "Update the daily seed"
      }
    },
    "notice": "A privacy-preserving Wordle game using FHE",
    "version": 1
  },
  "storageLayout": {
    "storage": [
      {
        "astId": 39057,
        "contract": "contracts/FHEWordle.sol:FHEWordle",
        "label": "games",
        "offset": 0,
        "slot": "0",
        "type": "t_mapping(t_address,t_struct(Game)39052_storage)"
      },
      {
        "astId": 39062,
        "contract": "contracts/FHEWordle.sol:FHEWordle",
        "label": "targetWord",
        "offset": 0,
        "slot": "1",
        "type": "t_array(t_userDefinedValueType(euint8)40261)5_storage"
      },
      {
        "astId": 39326,
        "contract": "contracts/FHEWordle.sol:FHEWordle",
        "label": "wordList",
        "offset": 0,
        "slot": "6",
        "type": "t_array(t_string_storage)dyn_storage"
      },
      {
        "astId": 39328,
        "contract": "contracts/FHEWordle.sol:FHEWordle",
        "label": "owner",
        "offset": 0,
        "slot": "7",
        "type": "t_address"
      },
      {
        "astId": 39330,
        "contract": "contracts/FHEWordle.sol:FHEWordle",
        "label": "dailySeed",
        "offset": 0,
        "slot": "8",
        "type": "t_uint256"
      },
      {
        "astId": 39332,
        "contract": "contracts/FHEWordle.sol:FHEWordle",
        "label": "lastSeedDay",
        "offset": 0,
        "slot": "9",
        "type": "t_uint256"
      }
    ],
    "types": {
      "t_address": {
        "encoding": "inplace",
        "label": "address",
        "numberOfBytes": "20"
      },
      "t_array(t_string_storage)dyn_storage": {
        "base": "t_string_storage",
        "encoding": "dynamic_array",
        "label": "string[]",
        "numberOfBytes": "32"
      },
      "t_array(t_userDefinedValueType(euint8)40261)5_storage": {
        "base": "t_userDefinedValueType(euint8)40261",
        "encoding": "inplace",
        "label": "euint8[5]",
        "numberOfBytes": "160"
      },
      "t_bool": {
        "encoding": "inplace",
        "label": "bool",
        "numberOfBytes": "1"
      },
      "t_mapping(t_address,t_struct(Game)39052_storage)": {
        "encoding": "mapping",
        "key": "t_address",
        "label": "mapping(address => struct FHEWordle.Game)",
        "numberOfBytes": "32",
        "value": "t_struct(Game)39052_storage"
      },
      "t_string_storage": {
        "encoding": "bytes",
        "label": "string",
        "numberOfBytes": "32"
      },
      "t_struct(Game)39052_storage": {
        "encoding": "inplace",
        "label": "struct FHEWordle.Game",
        "members": [
          {
            "astId": 39040,
            "contract": "contracts/FHEWordle.sol:FHEWordle",
            "label": "initialized",
            "offset": 0,
            "slot": "0",
            "type": "t_bool"
          },
          {
            "astId": 39042,
            "contract": "contracts/FHEWordle.sol:FHEWordle",
            "label": "guessCount",
            "offset": 1,
            "slot": "0",
            "type": "t_uint8"
          },
          {
            "astId": 39044,
            "contract": "contracts/FHEWordle.sol:FHEWordle",
            "label": "completed",
            "offset": 2,
            "slot": "0",
            "type": "t_bool"
          },
          {
            "astId": 39046,
            "contract": "contracts/FHEWordle.sol:FHEWordle",
            "label": "won",
            "offset": 3,
            "slot": "0",
            "type": "t_bool"
          },
          {
            "astId": 39048,
            "contract": "contracts/FHEWordle.sol:FHEWordle",
            "label": "gameDay",
            "offset": 0,
            "slot": "1",
            "type": "t_uint256"
          },
          {
            "astId": 39051,
            "contract": "contracts/FHEWordle.sol:FHEWordle",
            "label": "hasWonEncrypted",
            "offset": 0,
            "slot": "2",
            "type": "t_userDefinedValueType(ebool)40259"
          }
        ],
        "numberOfBytes": "96"
      },
      "t_uint256": {
        "encoding": "inplace",
        "label": "uint256",
        "numberOfBytes": "32"
      },
      "t_uint8": {
        "encoding": "inplace",
        "label": "uint8",
        "numberOfBytes": "1"
      },
      "t_userDefinedValueType(ebool)40259": {
        "encoding": "inplace",
        "label": "ebool",
        "numberOfBytes": "32"
      },
      "t_userDefinedValueType(euint8)40261": {
        "encoding": "inplace",
        "label": "euint8",
        "numberOfBytes": "32"
      }
    }
  }
}